{
  "contractName": "Onest",
  "abi": [
    {
      "anonymous": false,
      "inputs": [
        {
          "indexed": false,
          "internalType": "string",
          "name": "activity",
          "type": "string"
        },
        {
          "indexed": false,
          "internalType": "string",
          "name": "productId",
          "type": "string"
        },
        {
          "indexed": false,
          "internalType": "string",
          "name": "itemId",
          "type": "string"
        },
        {
          "indexed": false,
          "internalType": "string",
          "name": "hash",
          "type": "string"
        }
      ],
      "name": "ItemEvent",
      "type": "event"
    },
    {
      "constant": true,
      "inputs": [
        {
          "internalType": "string",
          "name": "",
          "type": "string"
        }
      ],
      "name": "ItemsMapping",
      "outputs": [
        {
          "internalType": "uint256",
          "name": "scannedNo",
          "type": "uint256"
        },
        {
          "internalType": "string",
          "name": "verificationUrl",
          "type": "string"
        },
        {
          "internalType": "string",
          "name": "status",
          "type": "string"
        },
        {
          "internalType": "string",
          "name": "soldTo",
          "type": "string"
        },
        {
          "internalType": "string",
          "name": "soldLocation",
          "type": "string"
        },
        {
          "internalType": "string",
          "name": "soldToUserId",
          "type": "string"
        },
        {
          "internalType": "string",
          "name": "qrcode",
          "type": "string"
        },
        {
          "internalType": "string",
          "name": "hash",
          "type": "string"
        }
      ],
      "payable": false,
      "stateMutability": "view",
      "type": "function"
    },
    {
      "constant": true,
      "inputs": [
        {
          "internalType": "string",
          "name": "",
          "type": "string"
        }
      ],
      "name": "ProductsMapping",
      "outputs": [
        {
          "internalType": "string",
          "name": "brand",
          "type": "string"
        },
        {
          "internalType": "string",
          "name": "name",
          "type": "string"
        },
        {
          "internalType": "string",
          "name": "Type",
          "type": "string"
        },
        {
          "internalType": "string",
          "name": "orgId",
          "type": "string"
        },
        {
          "internalType": "string",
          "name": "attributes",
          "type": "string"
        }
      ],
      "payable": false,
      "stateMutability": "view",
      "type": "function"
    },
    {
      "constant": false,
      "inputs": [
        {
          "internalType": "string",
          "name": "productId",
          "type": "string"
        },
        {
          "internalType": "string",
          "name": "brand",
          "type": "string"
        },
        {
          "internalType": "string",
          "name": "name",
          "type": "string"
        },
        {
          "internalType": "string",
          "name": "Type",
          "type": "string"
        },
        {
          "internalType": "string",
          "name": "orgId",
          "type": "string"
        },
        {
          "internalType": "string",
          "name": "attributes",
          "type": "string"
        }
      ],
      "name": "addProduct",
      "outputs": [],
      "payable": false,
      "stateMutability": "nonpayable",
      "type": "function"
    },
    {
      "constant": false,
      "inputs": [
        {
          "internalType": "string",
          "name": "productId",
          "type": "string"
        }
      ],
      "name": "removeProduct",
      "outputs": [],
      "payable": false,
      "stateMutability": "nonpayable",
      "type": "function"
    },
    {
      "constant": false,
      "inputs": [
        {
          "internalType": "string",
          "name": "productId",
          "type": "string"
        },
        {
          "internalType": "string",
          "name": "brand",
          "type": "string"
        },
        {
          "internalType": "string",
          "name": "name",
          "type": "string"
        },
        {
          "internalType": "string",
          "name": "Type",
          "type": "string"
        },
        {
          "internalType": "string",
          "name": "orgId",
          "type": "string"
        },
        {
          "internalType": "string",
          "name": "attributes",
          "type": "string"
        }
      ],
      "name": "updateProduct",
      "outputs": [],
      "payable": false,
      "stateMutability": "nonpayable",
      "type": "function"
    },
    {
      "constant": false,
      "inputs": [
        {
          "internalType": "string",
          "name": "itemIds",
          "type": "string"
        },
        {
          "internalType": "string",
          "name": "verificationUrls",
          "type": "string"
        },
        {
          "internalType": "string",
          "name": "hashes",
          "type": "string"
        }
      ],
      "name": "addItems",
      "outputs": [],
      "payable": false,
      "stateMutability": "nonpayable",
      "type": "function"
    },
    {
      "constant": false,
      "inputs": [
        {
          "internalType": "string",
          "name": "itemId",
          "type": "string"
        }
      ],
      "name": "removeItem",
      "outputs": [],
      "payable": false,
      "stateMutability": "nonpayable",
      "type": "function"
    },
    {
      "constant": false,
      "inputs": [
        {
          "internalType": "string",
          "name": "itemId",
          "type": "string"
        },
        {
          "internalType": "uint256",
          "name": "scannedNo",
          "type": "uint256"
        },
        {
          "internalType": "string",
          "name": "verificationUrl",
          "type": "string"
        },
        {
          "internalType": "string",
          "name": "status",
          "type": "string"
        },
        {
          "internalType": "string",
          "name": "soldTo",
          "type": "string"
        },
        {
          "internalType": "string",
          "name": "soldLocation",
          "type": "string"
        },
        {
          "internalType": "string",
          "name": "soldToUserId",
          "type": "string"
        },
        {
          "internalType": "string",
          "name": "qrcode",
          "type": "string"
        },
        {
          "internalType": "string",
          "name": "hash",
          "type": "string"
        }
      ],
      "name": "updateItem",
      "outputs": [],
      "payable": false,
      "stateMutability": "nonpayable",
      "type": "function"
    },
    {
      "constant": false,
      "inputs": [
        {
          "internalType": "string",
          "name": "activity",
          "type": "string"
        },
        {
          "internalType": "string",
          "name": "productId",
          "type": "string"
        },
        {
          "internalType": "string",
          "name": "itemId",
          "type": "string"
        },
        {
          "internalType": "string",
          "name": "hash",
          "type": "string"
        }
      ],
      "name": "captureEvent",
      "outputs": [],
      "payable": false,
      "stateMutability": "nonpayable",
      "type": "function"
    }
  ],
  "bytecode": "0x608060405234801561001057600080fd5b50613154806100206000396000f3fe608060405234801561001057600080fd5b50600436106100935760003560e01c806368dfa8ba1161006657806368dfa8ba14610cd65780639726dd1914610d91578063b2a286c314610e4c578063b56559b214611333578063c862298b146116e157610093565b80630b84680d14610098578063154ca5e7146104465780633918dfba1461072a5780633cb208b414610913575b600080fd5b610444600480360360c08110156100ae57600080fd5b81019080803590602001906401000000008111156100cb57600080fd5b8201836020820111156100dd57600080fd5b803590602001918460018302840111640100000000831117156100ff57600080fd5b91908080601f016020809104026020016040519081016040528093929190818152602001838380828437600081840152601f19601f8201169050808301925050505050505091929192908035906020019064010000000081111561016257600080fd5b82018360208201111561017457600080fd5b8035906020019184600183028401116401000000008311171561019657600080fd5b91908080601f016020809104026020016040519081016040528093929190818152602001838380828437600081840152601f19601f820116905080830192505050505050509192919290803590602001906401000000008111156101f957600080fd5b82018360208201111561020b57600080fd5b8035906020019184600183028401116401000000008311171561022d57600080fd5b91908080601f016020809104026020016040519081016040528093929190818152602001838380828437600081840152601f19601f8201169050808301925050505050505091929192908035906020019064010000000081111561029057600080fd5b8201836020820111156102a257600080fd5b803590602001918460018302840111640100000000831117156102c457600080fd5b91908080601f016020809104026020016040519081016040528093929190818152602001838380828437600081840152601f19601f8201169050808301925050505050505091929192908035906020019064010000000081111561032757600080fd5b82018360208201111561033957600080fd5b8035906020019184600183028401116401000000008311171561035b57600080fd5b91908080601f016020809104026020016040519081016040528093929190818152602001838380828437600081840152601f19601f820116905080830192505050505050509192919290803590602001906401000000008111156103be57600080fd5b8201836020820111156103d057600080fd5b803590602001918460018302840111640100000000831117156103f257600080fd5b91908080601f016020809104026020016040519081016040528093929190818152602001838380828437600081840152601f19601f820116905080830192505050505050509192919290505050611961565b005b6104ff6004803603602081101561045c57600080fd5b810190808035906020019064010000000081111561047957600080fd5b82018360208201111561048b57600080fd5b803590602001918460018302840111640100000000831117156104ad57600080fd5b91908080601f016020809104026020016040519081016040528093929190818152602001838380828437600081840152601f19601f820116905080830192505050505050509192919290505050611a8d565b60405180806020018060200180602001806020018060200186810386528b818151815260200191508051906020019080838360005b8381101561054f578082015181840152602081019050610534565b50505050905090810190601f16801561057c5780820380516001836020036101000a031916815260200191505b5086810385528a818151815260200191508051906020019080838360005b838110156105b557808201518184015260208101905061059a565b50505050905090810190601f1680156105e25780820380516001836020036101000a031916815260200191505b50868103845289818151815260200191508051906020019080838360005b8381101561061b578082015181840152602081019050610600565b50505050905090810190601f1680156106485780820380516001836020036101000a031916815260200191505b50868103835288818151815260200191508051906020019080838360005b83811015610681578082015181840152602081019050610666565b50505050905090810190601f1680156106ae5780820380516001836020036101000a031916815260200191505b50868103825287818151815260200191508051906020019080838360005b838110156106e75780820151818401526020810190506106cc565b50505050905090810190601f1680156107145780820380516001836020036101000a031916815260200191505b509a505050505050505050505060405180910390f35b6109116004803603606081101561074057600080fd5b810190808035906020019064010000000081111561075d57600080fd5b82018360208201111561076f57600080fd5b8035906020019184600183028401116401000000008311171561079157600080fd5b91908080601f016020809104026020016040519081016040528093929190818152602001838380828437600081840152601f19601f820116905080830192505050505050509192919290803590602001906401000000008111156107f457600080fd5b82018360208201111561080657600080fd5b8035906020019184600183028401116401000000008311171561082857600080fd5b91908080601f016020809104026020016040519081016040528093929190818152602001838380828437600081840152601f19601f8201169050808301925050505050505091929192908035906020019064010000000081111561088b57600080fd5b82018360208201111561089d57600080fd5b803590602001918460018302840111640100000000831117156108bf57600080fd5b91908080601f016020809104026020016040519081016040528093929190818152602001838380828437600081840152601f19601f820116905080830192505050505050509192919290505050611dd1565b005b6109cc6004803603602081101561092957600080fd5b810190808035906020019064010000000081111561094657600080fd5b82018360208201111561095857600080fd5b8035906020019184600183028401116401000000008311171561097a57600080fd5b91908080601f016020809104026020016040519081016040528093929190818152602001838380828437600081840152601f19601f8201169050808301925050505050505091929192905050506121f0565b604051808981526020018060200180602001806020018060200180602001806020018060200188810388528f818151815260200191508051906020019080838360005b83811015610a2a578082015181840152602081019050610a0f565b50505050905090810190601f168015610a575780820380516001836020036101000a031916815260200191505b5088810387528e818151815260200191508051906020019080838360005b83811015610a90578082015181840152602081019050610a75565b50505050905090810190601f168015610abd5780820380516001836020036101000a031916815260200191505b5088810386528d818151815260200191508051906020019080838360005b83811015610af6578082015181840152602081019050610adb565b50505050905090810190601f168015610b235780820380516001836020036101000a031916815260200191505b5088810385528c818151815260200191508051906020019080838360005b83811015610b5c578082015181840152602081019050610b41565b50505050905090810190601f168015610b895780820380516001836020036101000a031916815260200191505b5088810384528b818151815260200191508051906020019080838360005b83811015610bc2578082015181840152602081019050610ba7565b50505050905090810190601f168015610bef5780820380516001836020036101000a031916815260200191505b5088810383528a818151815260200191508051906020019080838360005b83811015610c28578082015181840152602081019050610c0d565b50505050905090810190601f168015610c555780820380516001836020036101000a031916815260200191505b50888103825289818151815260200191508051906020019080838360005b83811015610c8e578082015181840152602081019050610c73565b50505050905090810190601f168015610cbb5780820380516001836020036101000a031916815260200191505b509f5050505050505050505050505050505060405180910390f35b610d8f60048036036020811015610cec57600080fd5b8101908080359060200190640100000000811115610d0957600080fd5b820183602082011115610d1b57600080fd5b80359060200191846001830284011164010000000083111715610d3d57600080fd5b91908080601f016020809104026020016040519081016040528093929190818152602001838380828437600081840152601f19601f820116905080830192505050505050509192919290505050612676565b005b610e4a60048036036020811015610da757600080fd5b8101908080359060200190640100000000811115610dc457600080fd5b820183602082011115610dd657600080fd5b80359060200191846001830284011164010000000083111715610df857600080fd5b91908080601f016020809104026020016040519081016040528093929190818152602001838380828437600081840152601f19601f82011690508083019250505050505050919291929050505061275d565b005b6113316004803603610120811015610e6357600080fd5b8101908080359060200190640100000000811115610e8057600080fd5b820183602082011115610e9257600080fd5b80359060200191846001830284011164010000000083111715610eb457600080fd5b91908080601f016020809104026020016040519081016040528093929190818152602001838380828437600081840152601f19601f8201169050808301925050505050505091929192908035906020019092919080359060200190640100000000811115610f2157600080fd5b820183602082011115610f3357600080fd5b80359060200191846001830284011164010000000083111715610f5557600080fd5b91908080601f016020809104026020016040519081016040528093929190818152602001838380828437600081840152601f19601f82011690508083019250505050505050919291929080359060200190640100000000811115610fb857600080fd5b820183602082011115610fca57600080fd5b80359060200191846001830284011164010000000083111715610fec57600080fd5b91908080601f016020809104026020016040519081016040528093929190818152602001838380828437600081840152601f19601f8201169050808301925050505050505091929192908035906020019064010000000081111561104f57600080fd5b82018360208201111561106157600080fd5b8035906020019184600183028401116401000000008311171561108357600080fd5b91908080601f016020809104026020016040519081016040528093929190818152602001838380828437600081840152601f19601f820116905080830192505050505050509192919290803590602001906401000000008111156110e657600080fd5b8201836020820111156110f857600080fd5b8035906020019184600183028401116401000000008311171561111a57600080fd5b91908080601f016020809104026020016040519081016040528093929190818152602001838380828437600081840152601f19601f8201169050808301925050505050505091929192908035906020019064010000000081111561117d57600080fd5b82018360208201111561118f57600080fd5b803590602001918460018302840111640100000000831117156111b157600080fd5b91908080601f016020809104026020016040519081016040528093929190818152602001838380828437600081840152601f19601f8201169050808301925050505050505091929192908035906020019064010000000081111561121457600080fd5b82018360208201111561122657600080fd5b8035906020019184600183028401116401000000008311171561124857600080fd5b91908080601f016020809104026020016040519081016040528093929190818152602001838380828437600081840152601f19601f820116905080830192505050505050509192919290803590602001906401000000008111156112ab57600080fd5b8201836020820111156112bd57600080fd5b803590602001918460018302840111640100000000831117156112df57600080fd5b91908080601f016020809104026020016040519081016040528093929190818152602001838380828437600081840152601f19601f82011690508083019250505050505050919291929050505061281c565b005b6116df600480360360c081101561134957600080fd5b810190808035906020019064010000000081111561136657600080fd5b82018360208201111561137857600080fd5b8035906020019184600183028401116401000000008311171561139a57600080fd5b91908080601f016020809104026020016040519081016040528093929190818152602001838380828437600081840152601f19601f820116905080830192505050505050509192919290803590602001906401000000008111156113fd57600080fd5b82018360208201111561140f57600080fd5b8035906020019184600183028401116401000000008311171561143157600080fd5b91908080601f016020809104026020016040519081016040528093929190818152602001838380828437600081840152601f19601f8201169050808301925050505050505091929192908035906020019064010000000081111561149457600080fd5b8201836020820111156114a657600080fd5b803590602001918460018302840111640100000000831117156114c857600080fd5b91908080601f016020809104026020016040519081016040528093929190818152602001838380828437600081840152601f19601f8201169050808301925050505050505091929192908035906020019064010000000081111561152b57600080fd5b82018360208201111561153d57600080fd5b8035906020019184600183028401116401000000008311171561155f57600080fd5b91908080601f016020809104026020016040519081016040528093929190818152602001838380828437600081840152601f19601f820116905080830192505050505050509192919290803590602001906401000000008111156115c257600080fd5b8201836020820111156115d457600080fd5b803590602001918460018302840111640100000000831117156115f657600080fd5b91908080601f016020809104026020016040519081016040528093929190818152602001838380828437600081840152601f19601f8201169050808301925050505050505091929192908035906020019064010000000081111561165957600080fd5b82018360208201111561166b57600080fd5b8035906020019184600183028401116401000000008311171561168d57600080fd5b91908080601f016020809104026020016040519081016040528093929190818152602001838380828437600081840152601f19601f8201169050808301925050505050505091929192905050506129a2565b005b61195f600480360360808110156116f757600080fd5b810190808035906020019064010000000081111561171457600080fd5b82018360208201111561172657600080fd5b8035906020019184600183028401116401000000008311171561174857600080fd5b91908080601f016020809104026020016040519081016040528093929190818152602001838380828437600081840152601f19601f820116905080830192505050505050509192919290803590602001906401000000008111156117ab57600080fd5b8201836020820111156117bd57600080fd5b803590602001918460018302840111640100000000831117156117df57600080fd5b91908080601f016020809104026020016040519081016040528093929190818152602001838380828437600081840152601f19601f8201169050808301925050505050505091929192908035906020019064010000000081111561184257600080fd5b82018360208201111561185457600080fd5b8035906020019184600183028401116401000000008311171561187657600080fd5b91908080601f016020809104026020016040519081016040528093929190818152602001838380828437600081840152601f19601f820116905080830192505050505050509192919290803590602001906401000000008111156118d957600080fd5b8201836020820111156118eb57600080fd5b8035906020019184600183028401116401000000008311171561190d57600080fd5b91908080601f016020809104026020016040519081016040528093929190818152602001838380828437600081840152601f19601f820116905080830192505050505050509192919290505050612ace565b005b6040518060a00160405280868152602001858152602001848152602001838152602001828152506000876040518082805190602001908083835b602083106119be578051825260208201915060208101905060208303925061199b565b6001836020036101000a03801982511681845116808217855250505050505090500191505090815260200160405180910390206000820151816000019080519060200190611a0d929190612f98565b506020820151816001019080519060200190611a2a929190612f98565b506040820151816002019080519060200190611a47929190612f98565b506060820151816003019080519060200190611a64929190612f98565b506080820151816004019080519060200190611a81929190612f98565b50905050505050505050565b600081805160208101820180518482526020830160208501208183528095505050505050600091509050806000018054600181600116156101000203166002900480601f016020809104026020016040519081016040528092919081815260200182805460018160011615610100020316600290048015611b4f5780601f10611b2457610100808354040283529160200191611b4f565b820191906000526020600020905b815481529060010190602001808311611b3257829003601f168201915b505050505090806001018054600181600116156101000203166002900480601f016020809104026020016040519081016040528092919081815260200182805460018160011615610100020316600290048015611bed5780601f10611bc257610100808354040283529160200191611bed565b820191906000526020600020905b815481529060010190602001808311611bd057829003601f168201915b505050505090806002018054600181600116156101000203166002900480601f016020809104026020016040519081016040528092919081815260200182805460018160011615610100020316600290048015611c8b5780601f10611c6057610100808354040283529160200191611c8b565b820191906000526020600020905b815481529060010190602001808311611c6e57829003601f168201915b505050505090806003018054600181600116156101000203166002900480601f016020809104026020016040519081016040528092919081815260200182805460018160011615610100020316600290048015611d295780601f10611cfe57610100808354040283529160200191611d29565b820191906000526020600020905b815481529060010190602001808311611d0c57829003601f168201915b505050505090806004018054600181600116156101000203166002900480601f016020809104026020016040519081016040528092919081815260200182805460018160011615610100020316600290048015611dc75780601f10611d9c57610100808354040283529160200191611dc7565b820191906000526020600020905b815481529060010190602001808311611daa57829003601f168201915b5050505050905085565b611dd9613018565b611de284612cb7565b9050611dec613018565b611df584612cb7565b9050611dff613018565b611e0884612cb7565b9050611e12613018565b611e506040518060400160405280600181526020017f2c00000000000000000000000000000000000000000000000000000000000000815250612cb7565b905060606001611e698387612ce590919063ffffffff16565b01604051908082528060200260200182016040528015611e9d57816020015b6060815260200190600190039081611e885790505b50905060606001611eb78487612ce590919063ffffffff16565b01604051908082528060200260200182016040528015611eeb57816020015b6060815260200190600190039081611ed65790505b50905060606001611f058587612ce590919063ffffffff16565b01604051908082528060200260200182016040528015611f3957816020015b6060815260200190600190039081611f245790505b50905060008090505b83518110156121e357611f66611f61868a612d5a90919063ffffffff16565b612d74565b848281518110611f7257fe5b6020026020010181905250611f98611f938689612d5a90919063ffffffff16565b612d74565b838281518110611fa457fe5b6020026020010181905250611fca611fc58688612d5a90919063ffffffff16565b612d74565b828281518110611fd657fe5b6020026020010181905250828181518110611fed57fe5b6020026020010151600185838151811061200357fe5b60200260200101516040518082805190602001908083835b6020831061203e578051825260208201915060208101905060208303925061201b565b6001836020036101000a03801982511681845116808217855250505050505090500191505090815260200160405180910390206001019080519060200190612087929190613032565b5082818151811061209457fe5b602002602001015160018583815181106120aa57fe5b60200260200101516040518082805190602001908083835b602083106120e557805182526020820191506020810190506020830392506120c2565b6001836020036101000a0380198251168184511680821785525050505050509050019150509081526020016040518091039020600601908051906020019061212e929190613032565b5081818151811061213b57fe5b6020026020010151600185838151811061215157fe5b60200260200101516040518082805190602001908083835b6020831061218c5780518252602082019150602081019050602083039250612169565b6001836020036101000a038019825116818451168082178552505050505050905001915050908152602001604051809103902060070190805190602001906121d5929190613032565b508080600101915050611f42565b5050505050505050505050565b600181805160208101820180518482526020830160208501208183528095505050505050600091509050806000015490806001018054600181600116156101000203166002900480601f0160208091040260200160405190810160405280929190818152602001828054600181600116156101000203166002900480156122b85780601f1061228d576101008083540402835291602001916122b8565b820191906000526020600020905b81548152906001019060200180831161229b57829003601f168201915b505050505090806002018054600181600116156101000203166002900480601f0160208091040260200160405190810160405280929190818152602001828054600181600116156101000203166002900480156123565780601f1061232b57610100808354040283529160200191612356565b820191906000526020600020905b81548152906001019060200180831161233957829003601f168201915b505050505090806003018054600181600116156101000203166002900480601f0160208091040260200160405190810160405280929190818152602001828054600181600116156101000203166002900480156123f45780601f106123c9576101008083540402835291602001916123f4565b820191906000526020600020905b8154815290600101906020018083116123d757829003601f168201915b505050505090806004018054600181600116156101000203166002900480601f0160208091040260200160405190810160405280929190818152602001828054600181600116156101000203166002900480156124925780601f1061246757610100808354040283529160200191612492565b820191906000526020600020905b81548152906001019060200180831161247557829003601f168201915b505050505090806005018054600181600116156101000203166002900480601f0160208091040260200160405190810160405280929190818152602001828054600181600116156101000203166002900480156125305780601f1061250557610100808354040283529160200191612530565b820191906000526020600020905b81548152906001019060200180831161251357829003601f168201915b505050505090806006018054600181600116156101000203166002900480601f0160208091040260200160405190810160405280929190818152602001828054600181600116156101000203166002900480156125ce5780601f106125a3576101008083540402835291602001916125ce565b820191906000526020600020905b8154815290600101906020018083116125b157829003601f168201915b505050505090806007018054600181600116156101000203166002900480601f01602080910402602001604051908101604052809291908181526020018280546001816001161561010002031660029004801561266c5780601f106126415761010080835404028352916020019161266c565b820191906000526020600020905b81548152906001019060200180831161264f57829003601f168201915b5050505050905088565b6001816040518082805190602001908083835b602083106126ac5780518252602082019150602081019050602083039250612689565b6001836020036101000a03801982511681845116808217855250505050505090500191505090815260200160405180910390206000808201600090556001820160006126f891906130b2565b60028201600061270891906130b2565b60038201600061271891906130b2565b60048201600061272891906130b2565b60058201600061273891906130b2565b60068201600061274891906130b2565b60078201600061275891906130b2565b505050565b6000816040518082805190602001908083835b602083106127935780518252602082019150602081019050602083039250612770565b6001836020036101000a0380198251168184511680821785525050505050509050019150509081526020016040518091039020600080820160006127d791906130b2565b6001820160006127e791906130b2565b6002820160006127f791906130b2565b60038201600061280791906130b2565b60048201600061281791906130b2565b505050565b6040518061010001604052808981526020018881526020018781526020018681526020018581526020018481526020018381526020018281525060018a6040518082805190602001908083835b6020831061288c5780518252602082019150602081019050602083039250612869565b6001836020036101000a03801982511681845116808217855250505050505090500191505090815260200160405180910390206000820151816000015560208201518160010190805190602001906128e5929190612f98565b506040820151816002019080519060200190612902929190612f98565b50606082015181600301908051906020019061291f929190612f98565b50608082015181600401908051906020019061293c929190612f98565b5060a0820151816005019080519060200190612959929190612f98565b5060c0820151816006019080519060200190612976929190612f98565b5060e0820151816007019080519060200190612993929190612f98565b50905050505050505050505050565b6040518060a00160405280868152602001858152602001848152602001838152602001828152506000876040518082805190602001908083835b602083106129ff57805182526020820191506020810190506020830392506129dc565b6001836020036101000a03801982511681845116808217855250505050505090500191505090815260200160405180910390206000820151816000019080519060200190612a4e929190612f98565b506020820151816001019080519060200190612a6b929190612f98565b506040820151816002019080519060200190612a88929190612f98565b506060820151816003019080519060200190612aa5929190612f98565b506080820151816004019080519060200190612ac2929190612f98565b50905050505050505050565b7f023b0a7bc3c160cb072f0c37e36af0998d50a29e9a6196e61112d364d123dce5848484846040518080602001806020018060200180602001858103855289818151815260200191508051906020019080838360005b83811015612b3f578082015181840152602081019050612b24565b50505050905090810190601f168015612b6c5780820380516001836020036101000a031916815260200191505b50858103845288818151815260200191508051906020019080838360005b83811015612ba5578082015181840152602081019050612b8a565b50505050905090810190601f168015612bd25780820380516001836020036101000a031916815260200191505b50858103835287818151815260200191508051906020019080838360005b83811015612c0b578082015181840152602081019050612bf0565b50505050905090810190601f168015612c385780820380516001836020036101000a031916815260200191505b50858103825286818151815260200191508051906020019080838360005b83811015612c71578082015181840152602081019050612c56565b50505050905090810190601f168015612c9e5780820380516001836020036101000a031916815260200191505b509850505050505050505060405180910390a150505050565b612cbf613018565b600060208301905060405180604001604052808451815260200182815250915050919050565b6000808260000151612d098560000151866020015186600001518760200151612dd6565b0190505b83600001518460200151018111612d535781806001019250508260000151612d4b856020015183038660000151038386600001518760200151612dd6565b019050612d0d565b5092915050565b612d62613018565b612d6d838383612eb1565b5092915050565b60608082600001516040519080825280601f01601f191660200182016040528015612dae5781602001600182028038833980820191505090505b5090506000602082019050612dcc8185602001518660000151612f4f565b8192505050919050565b6000808490506000868511612ea15760208511612e5b57600060018660200360080260020a031960001b905060008186511690506000878a8a0103905060008386511690505b828114612e4d57818610612e3a578a8a019650505050505050612ea9565b8580600101965050838651169050612e1c565b859650505050505050612ea9565b60008585209050600091505b8588038211612e9f576000868420905080821415612e8b5783945050505050612ea9565b600184019350508180600101925050612e67565b505b868601925050505b949350505050565b612eb9613018565b6000612ed78560000151866020015186600001518760200151612dd6565b90508460200151836020018181525050846020015181038360000181815250508460000151856020015101811415612f19576000856000018181525050612f44565b8360000151836000015101856000018181510391508181525050836000015181018560200181815250505b829150509392505050565b5b60208110612f735781518352602083019250602082019150602081039050612f50565b60006001826020036101000a0390508019835116818551168181178652505050505050565b828054600181600116156101000203166002900490600052602060002090601f016020900481019282601f10612fd957805160ff1916838001178555613007565b82800160010185558215613007579182015b82811115613006578251825591602001919060010190612feb565b5b50905061301491906130fa565b5090565b604051806040016040528060008152602001600081525090565b828054600181600116156101000203166002900490600052602060002090601f016020900481019282601f1061307357805160ff19168380011785556130a1565b828001600101855582156130a1579182015b828111156130a0578251825591602001919060010190613085565b5b5090506130ae91906130fa565b5090565b50805460018160011615610100020316600290046000825580601f106130d857506130f7565b601f0160209004906000526020600020908101906130f691906130fa565b5b50565b61311c91905b80821115613118576000816000905550600101613100565b5090565b9056fea265627a7a72315820380d4ee549b55536be35c0c2497543726a3754ab1c2fdedd41892bdac535bde864736f6c63430005100032",
  "source": "// SPDX-License-Identifier: MIT\npragma solidity >=0.4.21 <0.7.0;\n\nimport \"./strings.sol\";\n\ncontract Onest {\n    \n    using strings for *;\n    \n    struct Product {\n        string brand;\n        string name;\n        string Type;\n        string orgId;\n        string attributes;\n    }\n    \n    struct Item {\n        uint256 scannedNo;\n        string verificationUrl;\n        string status;\n        string soldTo;\n        string soldLocation;\n        string soldToUserId;\n        string qrcode;\n        string hash;\n    }\n    \n    mapping (string => Product) public ProductsMapping;\n    mapping (string => Item) public ItemsMapping;\n    \n    event ItemEvent(string activity, string productId, string itemId, string hash);\n    \n    function addProduct(string memory productId, string memory brand, string memory name, string memory Type, string memory orgId, string memory attributes) public {\n        ProductsMapping[productId] = Product(brand, name, Type, orgId, attributes);\n    }   \n    \n    function removeProduct(string memory productId) public {\n        delete ProductsMapping[productId];\n    }\n    \n    function updateProduct(string memory productId, string memory brand, string memory name, string memory Type, string memory orgId, string memory attributes) public {\n        ProductsMapping[productId] = Product(brand, name, Type, orgId, attributes);\n    }\n    \n    function addItems(string memory itemIds, string memory verificationUrls, string memory hashes) public {\n        strings.slice memory itemIdSlices = itemIds.toSlice();\n        strings.slice memory verificationUrlSlices = verificationUrls.toSlice();\n        strings.slice memory hashesSlices = hashes.toSlice();\n\n        strings.slice memory delim = \",\".toSlice();\n        \n        string[] memory itemIdArr = new string[](itemIdSlices.count(delim) + 1);\n        string[] memory verificationUrlArr = new string[](verificationUrlSlices.count(delim) + 1);\n        string[] memory hashesArr = new string[](hashesSlices.count(delim) + 1);\n        \n        for(uint i = 0; i < itemIdArr.length; i++) {\n            itemIdArr[i] = itemIdSlices.split(delim).toString();\n            verificationUrlArr[i] = verificationUrlSlices.split(delim).toString();\n            hashesArr[i] = hashesSlices.split(delim).toString();\n            \n            ItemsMapping[itemIdArr[i]].verificationUrl = verificationUrlArr[i];\n            ItemsMapping[itemIdArr[i]].qrcode = verificationUrlArr[i];\n            ItemsMapping[itemIdArr[i]].hash = hashesArr[i];\n        }\n    }   \n    \n    function removeItem(string memory itemId) public {\n        delete ItemsMapping[itemId];\n    }\n    \n    function updateItem(string memory itemId, uint256 scannedNo, string memory verificationUrl, string memory status, string memory soldTo, string memory soldLocation, string memory soldToUserId, string memory qrcode, string memory hash) public {\n        ItemsMapping[itemId] = Item(scannedNo, verificationUrl, status, soldTo, soldLocation, soldToUserId, qrcode, hash);\n    }\n    \n    function captureEvent(string memory activity, string memory productId, string memory itemId, string memory hash) public {\n        emit ItemEvent(activity, productId,itemId, hash);\n    }\n}",
  "sourcePath": "/home/vasa/Desktop/tbc/onset-project/onset-contract-manager/contracts/Onset.sol",
  "compiler": {
    "name": "solc",
    "version": "0.5.16+commit.9c3226ce.Emscripten.clang"
  },
  "schemaVersion": "3.2.0",
  "updatedAt": "2020-07-17T11:35:32.267Z",
  "networkType": "ethereum",
  "devdoc": {
    "methods": {}
  },
  "userdoc": {
    "methods": {}
  }
}